:100000007CC000008CC000008AC0000003C100005A
:1000100086C0000084C0000082C0000080C00000D4
:100020007EC000007CC000007AC0000078C00000E4
:1000300076C0000074C0000072C0000070C00000F4
:100040006EC000006CC000006AC0000068C0000004
:1000500066C0000064C0000062C0000060C0000014
:100060005EC000005CC000005AC0000058C0000024
:1000700056C0000054C0000052C0000050C0000034
:100080004EC000004CC000004AC0000048C0000044
:1000900046C0000044C0000042C0000040C0000054
:1000A0003EC000003CC000003AC0000038C0000064
:1000B00036C00000C0C0000032C0000030C00000E8
:1000C0002EC000002CC000002AC0000028C0000084
:1000D00026C0000024C0000022C0000020C0000094
:1000E0001EC00000AA00AF00B400B900C800CD00D7
:1000F000D200D700DC00E100E60011241FBECFEFE4
:10010000D1E2DEBFCDBF00E00CBF22E0A0E0B2E054
:1001100001C01D92A130B207E1F7B6D0D2C370CFB3
:10012000C2D067C00895CF93DF9385B1816085B950
:1001300085B18E7F85B9C0E0D0E0E0910002F091FA
:100140000102EB30F10508F045C08827EE58FF4F5B
:100150008F4FAFC362E08EE190E0DFD03BC064E040
:1001600082E390E0DAD036C062E080E590E0D5D05E
:1001700031C0C43F81E0D80734F461E08FEE9FEFD7
:10018000CCD0219627C067E08EE190E0C6D022C097
:1001900062E086E490E0C1D01DC068E082E390E0B8
:1001A000BCD018C061E088ED9FEFB7D013C062E00B
:1001B0008EEC9FEFB2D00EC061E086E490E0ADD04F
:1001C00009C062E086E490E0A8D004C067E082E362
:1001D00090E0A3D080910002909101020B970CF463
:1001E000ACCF74D01092010210920002DF91CF9137
:1001F000089511B80895883058F421E030E002C025
:10020000220F331F8A95E2F780B1809582230895EB
:1002100080E008951F920F920FB60F9211248F93D2
:10022000809100028F5F809300028F910F900FBE2C
:100230000F901F9018951F920F920FB60F921124D6
:100240000BB60F922F933F934F935F936F937F93D0
:100250008F939F93AF93BF93EF93FF9340D11092EF
:10026000A100FF91EF91BF91AF919F918F917F91ED
:100270006F915F914F913F912F910F900BBE0F9017
:100280000FBE0F901F901895789484E08DBB80E38B
:100290008093690045DF1092000281E0ACDF882383
:1002A000E1F341DFFACF8FEF93E0909389008093E1
:1002B000880083EC80938000109281008FEF84B9D6
:1002C00089E085B985B18E7F85B908950EC0E8E8CB
:1002D000F0E080819181019691838083E9D08FE95C
:1002E0009FE00197F1F700C0000080918800909195
:1002F00089008F3F934059F7E1E8F0E08081887FE3
:100300008083089507C08150EFE9FFE03197F1F74E
:1003100000C000008111F7CF0895BF92CF92DF9205
:10032000EF92FF920F931F93CF93DF931F921F9231
:10033000CDB7DEB78C01B62E8436910511F403E6F5
:1003400010E0009F6001019FD00CD00C11240D2CF7
:10035000000CEE08FF08C701B60165D157D220E0B6
:1003600030E040E251E4EBD19B01AC0160E070EC85
:100370008FE794E4C0D024D17A83698301151105F5
:1003800011F4A4DF89C08091810081FD05C0E1E8FE
:10039000F0E080818260808311230CF03FC085B142
:1003A0008830A1F480918800909189008F3F93401C
:1003B00011F415B871C0E8E8F0E0808191810196F0
:1003C0009183808375D08B2D9DDF66C0209188003E
:1003D0003091890089819A812817390758F4E8E813
:1003E000F0E08081918101969183808361D08B2D93
:1003F00089DF52C0209188003091890089819A81DB
:100400008217930708F048C0E8E8F0E08081918106
:100410000197918380838B2D75DF3EC085B1883035
:1004200039F5209188003091890089819A812817B7
:10043000390758F4E8E8F0E08081918101969183D2
:10044000808336D08B2D5EDF27C0209188003091CD
:10045000890089819A8182179307F0F4E8E8F0E037
:10046000808191810197918380838B2D4BDF14C014
:1004700080918800909189008F3F934019F488E023
:1004800085B90AC0E8E8F0E0808191810196918306
:1004900080830ED08B2D36DF0F900F90DF91CF91A0
:1004A0001F910F91FF90EF90DF90CF90BF90089534
:1004B000E1E9F0E08081816080838FEF93E09093A9
:1004C000990080939800E1EAF0E080818560808364
:1004D0008CED9FEF9093A5008093A4000895E1E92F
:1004E000F0E08081816080838DEC90E090939900B2
:1004F0008093980008955058BB27AA270ED0E5C0D6
:10050000D6D030F0DBD020F031F49F3F11F41EF450
:10051000CBC00EF4E095E7FBC1C0E92FE7D080F334
:10052000BA17620773078407950718F071F49EF5F0
:10053000FFC00EF4E0950B2EBA2FA02D0B01B901D0
:1005400090010C01CA01A0011124FF27591B99F049
:10055000593F50F4503E68F11A16F040A22F232F55
:10056000342F4427585FF3CF469537952795A795A5
:10057000F0405395C9F77EF41F16BA0B620B730B4C
:10058000840BBAF09150A1F0FF0FBB1F661F771FBD
:10059000881FC2F70EC0BA0F621F731F841F48F472
:1005A000879577956795B795F7959E3F08F0B3CFF8
:1005B0009395880F08F09927EE0F979587950895E2
:1005C00004D06894B111B5C0089598D088F09F57B1
:1005D00090F0B92F9927B751A0F0D1F0660F771F8F
:1005E000881F991F1AF0BA95C9F712C0B13081F06F
:1005F0009FD0B1E008959CC0672F782F8827B85FFF
:1006000039F0B93FCCF3869577956795B395D9F7CF
:100610003EF490958095709561957F4F8F4F9F4FD9
:100620000895E89409C097FB3EF4909580957095E5
:1006300061957F4F8F4F9F4F9923A9F0F92F96E92E
:10064000BB279395F695879577956795B795F111A3
:10065000F8CFFAF4BB0F11F460FF1BC06F5F7F4F40
:100660008F4F9F4F16C0882311F096E911C0772352
:1006700021F09EE8872F762F05C0662371F096E85B
:10068000862F70E060E02AF09A95660F771F881F2A
:10069000DAF7880F9695879597F9089597F99F67E8
:1006A00080E870E060E008959FEF80EC08950024FA
:1006B0000A941616170618060906089500240A94C7
:1006C00012161306140605060895092E0394000C4D
:1006D00011F4882352F0BB0F40F4BF2B11F460FFDC
:1006E00004C06F5F7F4F8F4F9F4F089557FD905805
:1006F000440F551F59F05F3F71F04795880F97FBE6
:10070000991F61F09F3F79F087950895121613069F
:100710001406551FF2CF4695F1DF08C016161706CE
:100720001806991FF1CF8695710561050894089503
:10073000E894BB2766277727CB0197F908950BD05C
:10074000C4CFB5DF28F0BADF18F0952309F0A6CFA3
:10075000ABCF1124EECFCADFA0F3959FD1F3950F55
:1007600050E0551F629FF001729FBB27F00DB11D35
:10077000639FAA27F00DB11DAA1F649F6627B00DC5
:10078000A11D661F829F2227B00DA11D621F739FAE
:10079000B00DA11D621F839FA00D611D221F749FBC
:1007A0003327A00D611D231F849F600D211D822F03
:1007B000762F6A2F11249F5750408AF0E1F088234A
:1007C0004AF0EE0FFF1FBB1F661F771F881F915057
:1007D0005040A9F79E3F510570F060CFAACF5F3F10
:1007E000ECF3983EDCF3869577956795B795F7958A
:1007F000E7959F5FC1F7FE2B880F911D9695879512
:1008000097F9089511F40EF44FCF3EC077DFD0F37F
:100810009923D9F3CEF39F57550B87FF43D000247C
:10082000A0E640EA900180585695979528F4805CA0
:10083000660F771F881F20F026173707480730F408
:10084000621B730B840B202931294A2BA695179420
:100850000794202531254A2758F7660F771F881FF0
:1008600020F026173707480730F4620B730B840B10
:10087000200D311D411DA09581F7B901842F91589C
:10088000880F9695879508959F3F31F0915020F4F9
:10089000879577956795B795880F911D969587955C
:1008A00097F9089591505040660F771F881FD2F72F
:1008B0000895EE0FFF1F881F8BBF0790F691E02D64
:0608C0001994F894FFCF2B
:00000001FF
