:100000007CC000008CC000008AC0000028C1000035
:1000100086C0000084C0000082C0000080C00000D4
:100020007EC000007CC000007AC0000078C00000E4
:1000300076C0000074C0000072C0000070C00000F4
:100040006EC000006CC000006AC0000068C0000004
:1000500066C0000064C0000062C0000060C0000014
:100060005EC000005CC000005AC0000058C0000024
:1000700056C0000054C0000052C0000050C0000034
:100080004EC000004CC000004AC0000048C0000044
:1000900046C0000044C0000042C0000040C0000054
:1000A0003EC000003CC000003AC0000038C0000064
:1000B00036C0000000C1000032C0000030C00000A7
:1000C0002EC000002CC000002AC0000028C0000084
:1000D00026C0000024C0000022C0000020C0000094
:1000E0001EC00000B600BC00C200C800D900DF007E
:1000F000E500EB00F100F700FD0011241FBECFEF7B
:10010000D1E2DEBFCDBF00E00CBF22E0A0E0B2E054
:1001100001C01D92A130B207E1F7F6D0F0C470CF54
:1001200093D0A5D248E060E875E280E090E00BD281
:10013000FCD079C00895CF93DF9385B1846085B9F1
:1001400085B18B7F85B971D282D091D2B6D2C0E011
:10015000D0E0E0910002F0910102EB30F10508F0EF
:1001600051C08827EE58FF4F8F4FC1C46CED75E02A
:1001700082E390E00FD146C064EC79E08CE390E03C
:1001800009D140C068EB7BE08AE590E003D13AC03A
:10019000C23583E0D8073CF460E070E080EB9FEF6D
:1001A000F9D021962FC064E971E18EE190E0F2D0A0
:1001B00029C06CED75E086E490E0ECD023C060E7E8
:1001C00077E188E290E0E6D01DC064E670E084EC60
:1001D0009FEFE0D017C06CED75E084EC9FEFDAD0B4
:1001E00011C068EC70E086E490E0D4D00BC068EEFB
:1001F00073E086E490E0CED005C060E777E182E36B
:1002000090E0C8D080910002909101020B970CF40D
:10021000A0CF9ED020D05DD2109201021092000299
:10022000DF91CF91089511B80895883058F421E0F6
:1002300030E002C0220F331F8A95E2F780B180952B
:100240008223089580E008958FEF87B9089588B1DB
:10025000816088B9089588B18E7F88B908951F920A
:100260000F920FB60F9211240BB60F922F933F935C
:100270004F935F936F937F938F939F93AF93BF93AE
:10028000EF93FF93809100028F5F80930002DED195
:10029000FF91EF91BF91AF919F918F917F916F915E
:1002A0005F914F913F912F910F900BBE0F900FBE1A
:1002B0000F901F9018951F920F920FB60F92112456
:1002C0000BB60F922F933F934F935F936F937F9350
:1002D0008F939F93AF93BF93EF93FF93EED11092C1
:1002E000A100FF91EF91BF91AF919F918F917F916D
:1002F0006F915F914F913F912F910F900BBE0F9097
:100300000FBE0F901F901895789484E08DBB80E30A
:100310008093690005DF1092000281E086DF811181
:1003200002C0189BFACF07DFF8CF8FEF93E09093CE
:1003300089008093880083EC809380001092810074
:100340008FEF84B98CE085B985B18B7F85B908952D
:1003500008C0E8E8F0E08081918101969183808374
:1003600095D180918800909189008F3F934089F7C3
:100370002B99B9D1E1E8F0E08081887F80830895EE
:1003800005C0019725E02A95F1F700001816190617
:10039000C4F30895AF92BF92CF92DF92EF92FF9293
:1003A0000F931F93CF93DF931F921F92CDB7DEB7AA
:1003B0008C015B018436910511F403E610E0009F87
:1003C0006001019FD00CD00C11240D2C000CEE0804
:1003D000FF08C701B60123D215D320E030E040E288
:1003E00051E4A9D29B01AC0160E070EC8FE794E48A
:1003F0007ED1E2D17A8369830115110511F4A8DF5A
:100400008EC08091810081FD05C0E1E8F0E080812F
:100410008260808311230CF042C085B18830B9F42A
:1004200080918800909189008F3F934029F485B195
:10043000877F85B954D173C0E8E8F0E0808191816D
:1004400001969183808322D1C5019ADF68C02091F3
:1004500088003091890089819A812817390758F4DA
:10046000E8E8F0E0808191810196918380830ED14C
:10047000C50186DF54C020918800309189008981B0
:100480009A818217930708F04AC0E8E8F0E080817B
:100490009181019791838083C50172DF40C085B14E
:1004A000883039F5209188003091890089819A81BE
:1004B0002817390758F4E8E8F0E080819181019627
:1004C00091838083E3D0C5015BDF29C02091880040
:1004D0003091890089819A818217930700F5E8E8B5
:1004E000F0E080819181019791838083C50148DF8D
:1004F00016C080918800909189008F3F934029F425
:1005000085B1886085B9EFD00AC0E8E8F0E0808165
:100510009181019691838083B9D0C50131DF0F901D
:100520000F90DF91CF911F910F91FF90EF90DF908F
:10053000CF90BF90AF9008959091C80095FFFCCFE9
:100540008093CE000895CF92DF92EF92FF920F93A7
:100550001F938B019C010C52114021093109053D6B
:10056000104C2140310508F041C0453008F43EC030
:100570004930E0F520E22093C80028E12093C9002B
:100580004550440F4093CA006B017C0120E8C20E25
:1005900024E8D21E2EE1E21EF11CCC0CDD1CEE1C68
:1005A000FF1CCC0CDD1CEE1CFF1CCC0CDD1CEE1C5F
:1005B000FF1CDC01CB01880F991FAA1FBB1F880FEE
:1005C000991FAA1FBB1F9C01AD01220F331F441F9F
:1005D000551F220F331F441F551FC701B60165D297
:1005E000215031093093CD002093CC008EE790E06C
:1005F000A3DF86E090E0A0DF80E090E09DDF80E078
:1006000090E09ADF81EE90E097DF8FEF90E094DF4B
:100610008CED90E091DF8FEE90E08EDF1F910F91D7
:10062000FF90EF90DF90CF9008958EE785DF83E015
:1006300083DF80E081DF80E07FDF81E07DDF8FEF9F
:100640007BDF8CEF79DF8FEE77CF08958EE774DF55
:1006500083E072DF80E070DF80E06EDF82E06CDFDD
:100660008FEF6ADF8BEF68DF8FEE66CF08958FEF35
:100670008DB983E880939000109291001092A000B1
:100680001092A10081E0809372000895E1E9F0E00A
:100690008081816080838FEF93E0909399008093B5
:1006A0009800E1EAF0E08081856080838BE791EE3D
:1006B0009093A5008093A4000895E1E9F0E0808183
:1006C000816080838DEC90E09093990080939800F6
:1006D0000895E1E9F0E080818E7F8083089588B1FC
:1006E000826088B9089588B18D7F88B9089550587F
:1006F000BB27AA270ED0E5C0D6D030F0DBD020F043
:1007000031F49F3F11F41EF4CBC00EF4E095E7FBEB
:10071000C1C0E92FE7D080F3BA17620773078407D7
:10072000950718F071F49EF5FFC00EF4E0950B2EBE
:10073000BA2FA02D0B01B90190010C01CA01A00133
:100740001124FF27591B99F0593F50F4503E68F18E
:100750001A16F040A22F232F342F4427585FF3CFCF
:10076000469537952795A795F0405395C9F77EF4A0
:100770001F16BA0B620B730B840BBAF09150A1F0E9
:10078000FF0FBB1F661F771F881FC2F70EC0BA0F6F
:10079000621F731F841F48F4879577956795B795F7
:1007A000F7959E3F08F0B3CF9395880F08F09927EF
:1007B000EE0F97958795089504D06894B111B5C050
:1007C000089598D088F09F5790F0B92F9927B75186
:1007D000A0F0D1F0660F771F881F991F1AF0BA9505
:1007E000C9F712C0B13081F09FD0B1E008959CC02C
:1007F000672F782F8827B85F39F0B93FCCF38695FB
:1008000077956795B395D9F73EF490958095709557
:1008100061957F4F8F4F9F4F0895E89409C097FBD4
:100820003EF490958095709561957F4F8F4F9F4FC7
:100830009923A9F0F92F96E9BB279395F69587950B
:1008400077956795B795F111F8CFFAF4BB0F11F4CE
:1008500060FF1BC06F5F7F4F8F4F9F4F16C0882375
:1008600011F096E911C0772321F09EE8872F762FAB
:1008700005C0662371F096E8862F70E060E02AF0EC
:100880009A95660F771F881FDAF7880F96958795D8
:1008900097F9089597F99F6780E870E060E0089500
:1008A0009FEF80EC089500240A9416161706180688
:1008B0000906089500240A94121613061406050664
:1008C0000895092E0394000C11F4882352F0BB0FF5
:1008D00040F4BF2B11F460FF04C06F5F7F4F8F4F58
:1008E0009F4F089557FD9058440F551F59F05F3F93
:1008F00071F04795880F97FB991F61F09F3F79F042
:1009000087950895121613061406551FF2CF4695C3
:10091000F1DF08C0161617061806991FF1CF869545
:100920007105610508940895E894BB276627772729
:10093000CB0197F908950BD0C4CFB5DF28F0BADF0B
:1009400018F0952309F0A6CFABCF1124EECFCADF64
:10095000A0F3959FD1F3950F50E0551F629FF001D2
:10096000729FBB27F00DB11D639FAA27F00DB11D2B
:10097000AA1F649F6627B00DA11D661F829F2227B4
:10098000B00DA11D621F739FB00DA11D621F839F3B
:10099000A00D611D221F749F3327A00D611D231F11
:1009A000849F600D211D822F762F6A2F11249F575F
:1009B00050408AF0E1F088234AF0EE0FFF1FBB1F82
:1009C000661F771F881F91505040A9F79E3F510521
:1009D00070F060CFAACF5F3FECF3983EDCF38695D2
:1009E00077956795B795F795E7959F5FC1F7FE2BCC
:1009F000880F911D9695879597F9089511F40EF437
:100A00004FCF3EC077DFD0F39923D9F3CEF39F5772
:100A1000550B87FF43D00024A0E640EA90018058A0
:100A20005695979528F4805C660F771F881F20F0F5
:100A300026173707480730F4621B730B840B2029F5
:100A400031294A2BA69517940794202531254A274A
:100A500058F7660F771F881F20F0261737074807BB
:100A600030F4620B730B840B200D311D411DA095DA
:100A700081F7B901842F9158880F9695879508952D
:100A80009F3F31F0915020F4879577956795B79502
:100A9000880F911D9695879597F90895915050402C
:100AA000660F771F881FD2F70895A1E21A2EAA1B9E
:100AB000BB1BFD010DC0AA1FBB1FEE1FFF1FA2170E
:100AC000B307E407F50720F0A21BB30BE40BF50B0B
:100AD000661F771F881F991F1A9469F76095709594
:100AE000809590959B01AC01BD01CF010895EE0F5B
:100AF000FF1F881F8BBF0790F691E02D1994F89483
:020B0000FFCF25
:00000001FF
