S00B000042494C2E7372656342
S11300007CC000008CC000008AC00000E1C0000079
S113001086C0000084C0000082C0000080C00000D0
S11300207EC000007CC000007AC0000078C00000E0
S113003076C0000074C0000072C0000070C00000F0
S11300406EC000006CC000006AC0000068C0000000
S113005066C0000064C0000062C0000060C0000010
S11300605EC000005CC000005AC0000058C0000020
S113007056C0000054C0000052C0000050C0000030
S11300804EC000004CC000004AC0000048C0000040
S113009046C0000044C0000042C0000040C0000050
S11300A03EC000003CC000003AC0000038C0000060
S11300B036C0000034C0000032C0000030C0000070
S11300C02EC000002CC000002AC0000028C0000080
S11300D026C0000024C0000022C0000020C0000090
S11300E01EC000009F00A300A700AB00AF00B30038
S11300F0B700BB00BF00C300C70011241FBECFEF71
S1130100D1E2DEBFCDBF00E00CBF22E0A0E0B2E050
S113011001C01D92A130B207E1F76BD048C370CF84
S113012075D045C00895E0910002F0910102EB30D2
S1130130F10580F58827EE58FF4F8F4F30C382E3D7
S113014090E08FD027C083E290E08BD023C084E17D
S113015090E087D01FC08AE090E083D01BC082E388
S113016090E07FD017C088E290E07BD013C082EE8D
S11301709FEF77D00FC088ED9FEF73D00BC082E361
S113018090E06FD007C082E390E06BD003C08EE1B3
S113019090E067D080910002909101020B970CF4DB
S11301A0C2CF44D01092010210920002089511B8F7
S11301B00895883058F421E030E002C0220F331F44
S11301C08A95E2F780B180958223089580E00895AE
S11301D01F920F920FB60F9211248F9380910002F9
S11301E08F5F809300028F910F900FBE0F901F902E
S11301F01895789484E08DBB80E38093690090DF48
S113020081E0D7DF8823E1F38EDFFACF8FEF93E02D
S1130210909389008093880083EC809380001092EF
S113022081008FEF84B988E085B908950DC0E8E8AE
S1130230F0E0808191810196918380838FE19EE437
S11302400197F1F700C00000809188009091890027
S11302508F3F934061F7E1E8F0E08081887F8083FD
S11302600895CF92DF92EF92FF92CF93DF93EC0148
S1130270889F6001899FD00CD00C11240D2C000C98
S1130280EE08FF08C701B60144D136D220E030E0C1
S113029040E251E4CAD19B01AC0160E070EC8FE70D
S11302A094E49FD003D1209711F4C0DF93C0209130
S11302B08100211103C022E020938100DD230CF092
S11302C045C023B12830B9F4809188009091890009
S11302D08F3F934011F415B87DC0E8E8F0E08081C9
S11302E091810196918380838FE19EE40197F1F7D8
S11302F000C000006FC0209188003091890026174B
S1130300370770F4E8E8F0E08081918101969183E9
S113031080838FE19EE40197F1F700C000005AC08A
S113032080918800909189006817790708F052C07D
S1130330E8E8F0E0808191810197918380838FE1E7
S11303409EE40197F1F700C0000044C023B12830B7
S113035051F520918800309189002617370770F4F1
S1130360E8E8F0E0808191810196918380838FE1B8
S11303709EE40197F1F700C000002CC08091880032
S1130380909189006817790728F5E8E8F0E0808102
S113039091810197918380838FE19EE40197F1F726
S11303A000C0000017C080918800909189008F3FA1
S11303B0934019F488E085B90DC0E8E8F0E0808145
S11303C091810196918380838FE19EE40197F1F7F7
S11303D000C00000DF91CF91FF90EF90DF90CF90AD
S11303E008955058BB27AA270ED0E5C0D6D030F0C8
S11303F0DBD020F031F49F3F11F41EF4CBC00EF497
S1130400E095E7FBC1C0E92FE7D080F3BA17620794
S113041073078407950718F071F49EF5FFC00EF476
S1130420E0950B2EBA2FA02D0B01B90190010C0100
S1130430CA01A0011124FF27591B99F0593F50F418
S1130440503E68F11A16F040A22F232F342F442770
S1130450585FF3CF469537952795A795F040539568
S1130460C9F77EF41F16BA0B620B730B840BBAF038
S11304709150A1F0FF0FBB1F661F771F881FC2F7A3
S11304800EC0BA0F621F731F841F48F487957795B7
S11304906795B795F7959E3F08F0B3CF9395880F6E
S11304A008F09927EE0F97958795089504D06894DE
S11304B0B111B5C0089598D088F09F5790F0B92F26
S11304C09927B751A0F0D1F0660F771F881F991FA5
S11304D01AF0BA95C9F712C0B13081F09FD0B1E0DB
S11304E008959CC0672F782F8827B85F39F0B93FEB
S11304F0CCF3869577956795B395D9F73EF49095A7
S11305008095709561957F4F8F4F9F4F0895E89424
S113051009C097FB3EF490958095709561957F4F47
S11305208F4F9F4F9923A9F0F92F96E9BB279395F5
S1130530F695879577956795B795F111F8CFFAF405
S1130540BB0F11F460FF1BC06F5F7F4F8F4F9F4F36
S113055016C0882311F096E911C0772321F09EE894
S1130560872F762F05C0662371F096E8862F70E0FA
S113057060E02AF09A95660F771F881FDAF7880FD4
S11305809695879597F9089597F99F6780E870E0A5
S113059060E008959FEF80EC089500240A941616F5
S11305A0170618060906089500240A94121613065D
S11305B0140605060895092E0394000C11F48823EB
S11305C052F0BB0F40F4BF2B11F460FF04C06F5F07
S11305D07F4F8F4F9F4F089557FD9058440F551FDD
S11305E059F05F3F71F04795880F97FB991F61F0B1
S11305F09F3F79F087950895121613061406551F28
S1130600F2CF4695F1DF08C0161617061806991F93
S1130610F1CF86957105610508940895E894BB2788
S113062066277727CB0197F908950BD0C4CFB5DFA0
S113063028F0BADF18F0952309F0A6CFABCF112428
S1130640EECFCADFA0F3959FD1F3950F50E0551F6D
S1130650629FF001729FBB27F00DB11D639FAA2713
S1130660F00DB11DAA1F649F6627B00DA11D661F62
S1130670829F2227B00DA11D621F739FB00DA11D83
S1130680621F839FA00D611D221F749F3327A00D3D
S1130690611D231F849F600D211D822F762F6A2FD9
S11306A011249F5750408AF0E1F088234AF0EE0F5E
S11306B0FF1FBB1F661F771F881F91505040A9F76B
S11306C09E3F510570F060CFAACF5F3FECF3983E98
S11306D0DCF3869577956795B795F795E7959F5FD2
S11306E0C1F7FE2B880F911D9695879597F908956C
S11306F011F40EF44FCF3EC077DFD0F39923D9F332
S1130700CEF39F57550B87FF43D00024A0E640EA61
S1130710900180585695979528F4805C660F771F52
S1130720881F20F026173707480730F4621B730B25
S1130730840B202931294A2BA69517940794202548
S113074031254A2758F7660F771F881F20F0261790
S11307503707480730F4620B730B840B200D311DEF
S1130760411DA09581F7B901842F9158880F969562
S1130770879508959F3F31F0915020F487957795A0
S11307806795B795880F911D9695879597F9089564
S113079091505040660F771F881FD2F70895EE0FCF
S11307A0FF1F881F8BBF0790F691E02D1994F894D2
S10507B0FFCF75
S9030000FC
