:100000007CC000008CC000008AC000001DC1000040
:1000100086C0000084C0000082C0000080C00000D4
:100020007EC000007CC000007AC0000078C00000E4
:1000300076C0000074C0000072C0000070C00000F4
:100040006EC000006CC000006AC0000068C0000004
:1000500066C0000064C0000062C0000060C0000014
:100060005EC000005CC000005AC0000058C0000024
:1000700056C0000054C0000052C0000050C0000034
:100080004EC000004CC000004AC0000048C0000044
:1000900046C0000044C0000042C0000040C0000054
:1000A0003EC000003CC000003AC0000038C0000064
:1000B00036C00000DAC0000032C0000030C00000CE
:1000C0002EC000002CC000002AC0000028C0000084
:1000D00026C0000024C0000022C0000020C0000094
:1000E0001EC00000AF00B500BB00C100D200D800A8
:1000F000DE00E400EA00F000F60011241FBECFEF9E
:10010000D1E2DEBFCDBF00E00CBF22E0A0E0B2E054
:1001100001C01D92A130B207E1F7D0D00AC470CF60
:100120008CD0E4D1DCD078C00895CF93DF9385B133
:10013000846085B985B18B7F85B982D0FDD1D6D158
:10014000C0E0D0E0E0910002F0910102EB30F10557
:1001500008F051C08827EE58FF4F8F4FE2C36CED77
:1001600075E082E390E0F0D046C064EC79E08CE387
:1001700090E0EAD040C068EB7BE08AE590E0E4D014
:100180003AC0C23583E0D8073CF460E070E080EB11
:100190009FEFDAD021962FC064E971E18EE190E003
:1001A000D3D029C06CED75E086E490E0CDD023C0BB
:1001B00060E777E188E290E0C7D01DC064E670E0B8
:1001C00084EC9FEFC1D017C06CED75E084EC9FEF1D
:1001D000BBD011C068EC70E086E490E0B5D00BC0F5
:1001E00068EE73E086E490E0AFD005C060E777E1A9
:1001F00082E390E0A9D080910002909101020B97D8
:100200000CF4A0CF7FD01CD0A3D110920102109289
:100210000002DF91CF91089511B80895883058F405
:1002200021E030E002C0220F331F8A95E2F780B14F
:1002300080958223089580E008958FEF87B908950F
:1002400088B1816088B908951F920F920FB60F92FE
:1002500011248F93809100028F5F809300028F9111
:100260000F900FBE0F901F9018951F920F920FB610
:100270000F9211240BB60F922F933F934F935F93DE
:100280006F937F938F939F93AF93BF93EF93FF935E
:1002900053D11092A100FF91EF91BF91AF919F9127
:1002A0008F917F916F915F914F913F912F910F901F
:1002B0000BBE0F900FBE0F901F901895789484E09E
:1002C0008DBB80E3809369002BDF1092000281E0F8
:1002D000A5DF811102C0189BFACF27DFF8CF8FEF7F
:1002E00093E0909389008093880083EC8093800052
:1002F000109281008FEF84B98CE085B985B18B7F36
:1003000085B9089508C0E8E8F0E080819181019600
:1003100091838083FAD080918800909189008F3FEB
:10032000934089F72B991BD1E1E8F0E08081887F29
:100330008083089505C0019725E02A95F1F7000014
:1003400018161906C4F30895AF92BF92CF92DF92A8
:10035000EF92FF920F931F93CF93DF931F921F9201
:10036000CDB7DEB78C015B018436910511F403E64D
:1003700010E0009F6001019FD00CD00C11240D2CC7
:10038000000CEE08FF08C701B60185D177D220E046
:1003900030E040E251E40BD29B01AC0160E070EC34
:1003A0008FE794E4E0D044D17A8369830115110585
:1003B00011F4A8DF8EC08091810081FD05C0E1E8C5
:1003C000F0E080818260808311230CF042C085B10F
:1003D0008830B9F480918800909189008F3F9340D4
:1003E00029F485B1877F85B9B6D073C0E8E8F0E01D
:1003F0008081918101969183808387D0C5019ADFA6
:1004000068C0209188003091890089819A812817DD
:10041000390758F4E8E8F0E08081918101969183F2
:10042000808373D0C50186DF54C02091880030914D
:10043000890089819A818217930708F04AC0E8E809
:10044000F0E080819181019791838083C50172DF03
:1004500040C085B1883039F52091880030918900FD
:1004600089819A812817390758F4E8E8F0E08081FB
:10047000918101969183808348D0C5015BDF29C0BB
:10048000209188003091890089819A818217930791
:1004900000F5E8E8F0E08081918101979183808305
:1004A000C50148DF16C080918800909189008F3F78
:1004B000934029F485B1886085B951D00AC0E8E835
:1004C000F0E0808191810196918380831ED0C501E7
:1004D00031DF0F900F90DF91CF911F910F91FF901F
:1004E000EF90DF90CF90BF90AF9008958FEF8DB9D0
:1004F00083E880939000109291001092A0001092D7
:10050000A10081E0809372000895E1E9F0E080812C
:10051000816080838FEF93E090939900809398009F
:10052000E1EAF0E08081856080838BE791EE909333
:10053000A5008093A4000895E1E9F0E08081816046
:1005400080838DEC90E090939900809398000895BB
:1005500010929100089588B1826088B9089588B199
:100560008D7F88B908955058BB27AA270ED0E5C0C3
:10057000D6D030F0DBD020F031F49F3F11F41EF4E0
:10058000CBC00EF4E095E7FBC1C0E92FE7D080F3C4
:10059000BA17620773078407950718F071F49EF580
:1005A000FFC00EF4E0950B2EBA2FA02D0B01B90160
:1005B00090010C01CA01A0011124FF27591B99F0D9
:1005C000593F50F4503E68F11A16F040A22F232FE5
:1005D000342F4427585FF3CF469537952795A79535
:1005E000F0405395C9F77EF41F16BA0B620B730BDC
:1005F000840BBAF09150A1F0FF0FBB1F661F771F4D
:10060000881FC2F70EC0BA0F621F731F841F48F401
:10061000879577956795B795F7959E3F08F0B3CF87
:100620009395880F08F09927EE0F97958795089571
:1006300004D06894B111B5C0089598D088F09F5740
:1006400090F0B92F9927B751A0F0D1F0660F771F1E
:10065000881F991F1AF0BA95C9F712C0B13081F0FE
:100660009FD0B1E008959CC0672F782F8827B85F8E
:1006700039F0B93FCCF3869577956795B395D9F75F
:100680003EF490958095709561957F4F8F4F9F4F69
:100690000895E89409C097FB3EF490958095709575
:1006A00061957F4F8F4F9F4F9923A9F0F92F96E9BE
:1006B000BB279395F695879577956795B795F11133
:1006C000F8CFFAF4BB0F11F460FF1BC06F5F7F4FD0
:1006D0008F4F9F4F16C0882311F096E911C07723E2
:1006E00021F09EE8872F762F05C0662371F096E8EB
:1006F000862F70E060E02AF09A95660F771F881FBA
:10070000DAF7880F9695879597F9089597F99F6777
:1007100080E870E060E008959FEF80EC0895002489
:100720000A941616170618060906089500240A9456
:1007300012161306140605060895092E0394000CDC
:1007400011F4882352F0BB0F40F4BF2B11F460FF6B
:1007500004C06F5F7F4F8F4F9F4F089557FD905894
:10076000440F551F59F05F3F71F04795880F97FB75
:10077000991F61F09F3F79F087950895121613062F
:100780001406551FF2CF4695F1DF08C0161617065E
:100790001806991FF1CF8695710561050894089593
:1007A000E894BB2766277727CB0197F908950BD0EC
:1007B000C4CFB5DF28F0BADF18F0952309F0A6CF33
:1007C000ABCF1124EECFCADFA0F3959FD1F3950FE5
:1007D00050E0551F629FF001729FBB27F00DB11DC5
:1007E000639FAA27F00DB11DAA1F649F6627B00D55
:1007F000A11D661F829F2227B00DA11D621F739F3E
:10080000B00DA11D621F839FA00D611D221F749F4B
:100810003327A00D611D231F849F600D211D822F92
:10082000762F6A2F11249F5750408AF0E1F08823D9
:100830004AF0EE0FFF1FBB1F661F771F881F9150E6
:100840005040A9F79E3F510570F060CFAACF5F3F9F
:10085000ECF3983EDCF3869577956795B795F79519
:10086000E7959F5FC1F7FE2B880F911D96958795A1
:1008700097F9089511F40EF44FCF3EC077DFD0F30F
:100880009923D9F3CEF39F57550B87FF43D000240C
:10089000A0E640EA900180585695979528F4805C30
:1008A000660F771F881F20F026173707480730F498
:1008B000621B730B840B202931294A2BA6951794B0
:1008C0000794202531254A2758F7660F771F881F80
:1008D00020F026173707480730F4620B730B840BA0
:1008E000200D311D411DA09581F7B901842F91582C
:1008F000880F9695879508959F3F31F0915020F489
:10090000879577956795B795880F911D96958795EB
:1009100097F9089591505040660F771F881FD2F7BE
:100920000895EE0FFF1F881F8BBF0790F691E02DF3
:060930001994F894FFCFBA
:00000001FF
